:1000000003C1000031C100002FC100002DC100005C
:100010002BC1000029C1000027C1000025C100003C
:1000200023C1000021C100001FC100001DC100004C
:100030001BC1000019C1000017C1000015C100005C
:1000400013C1000011C100000FC100000DC100006C
:100050000BC1000009C1000007C1000003C6000079
:1000600003C10000CAC500009FC50000FDC000001C
:10007000FBC00000F9C00000F7C00000F5C00000A0
:10008000F3C00000F1C00000EFC00000EDC00000B0
:1000900056C500002BC50000E7C00000E5C0000009
:1000A000E3C00000E1C00000DFC00000DDC00000D0
:1000B000DBC00000D9C00000D7C00000D5C00000E0
:1000C000D3C00000D1C00000CFC00000CDC00000F0
:1000D000CBC00000C9C00000C7C00000C5C0000000
:1000E000C3C0000000002100240027002A002D00CA
:1000F0003000330001010000040107010A01000083
:100100002200250028002B002E00310034000201BF
:100110000000050108010B0100002000230026005B
:1001200029002C002F00320000010000030106010D
:10013000090105050505070508080808020202026D
:100140000A0A080804040404010101010101010173
:100150000303030303030303040707070C0C0C0C3E
:100160000C0C0C0C02020202060606060606060627
:100170000B0B0B0B0B0B0B0B0102102020080810B4
:100180002040102040800201020108040201010207
:1001900004081020408080402010080402018004E0
:1001A000020180402010080402010804020101023B
:1001B0000408102040800102040810204080000044
:1001C0000A0B02090C0D0E080703040100000000D1
:1001D000000000000000000000000000000000001F
:1001E00000000000000000000000121110000000DC
:1001F00000000000000000000000000000000000FF
:10020000000000007C061F0A11241FBECFEFD1E2C0
:10021000DEBFCDBF00E00CBF29E0A0E2B4E001C02A
:100220001D92AF38B207E1F714E0A0E0B2E0E0E9D8
:10023000FEE100E00BBF02C007900D92A032B107B3
:10024000D9F711E0C3E0D1E000E006C02197010931
:10025000802FFE010E944B0AC230D10780E00807C0
:10026000A9F7B8D50C94370FCBCEFC01A089B18982
:1002700082E08C93A485B5851C92A685B7858FEC0A
:100280008C93108EA489B58986E08C93A289B3895A
:100290008C9180618C93A289B3898C9188608C93B6
:1002A000A289B3898C9180688C930288F389E02DB0
:1002B00080818F7D8083089580917B00877F8093EC
:1002C0007B0080E480937C0080917A00806480933E
:1002D0007A0080917A0086FDFCCF80917800909121
:1002E00079000895AF92BF92CF92DF92EF92FF9282
:1002F0000F931F93CF93DF936C017B018B01040F4E
:10030000151FEB015E01AE18BF08C017D10759F0E9
:100310006991D601ED91FC910190F081E02DC6012B
:100320001995892B79F7C501DF91CF911F910F9115
:10033000FF90EF90DF90CF90BF90AF900895FC01B9
:10034000538D448D252F30E0842F90E0821B930B3A
:10035000541718F081509F4F089501970895FC019C
:10036000918D828D981759F0A28DAE0FBF2FB11DC0
:100370005D968C91928D9F5F928F90E008958FEFA4
:100380009FEF0895FC01918D828D981731F0828D39
:10039000E80FF11D858D90E008958FEF9FEF089590
:1003A000FC01918D828D981B892F90E0089585E442
:1003B00095E0F6DF21E0892B09F420E0822F0895F3
:1003C00082E697E0EDDF21E0892B09F420E0822F1F
:1003D0000895FC01A48DA80FB92FB11DA35EBE4FD7
:1003E0009C91848D8F5F848FA689B7899C93A08907
:1003F000B1898C91837080648C93938D848D9813D4
:1004000006C00288F389E02D80818F7D8083089566
:100410000F931F93CF93DF93EC0181E0888F9B8D27
:100420008C8D981318C0E889F989808185FF13C0E5
:100430009FB7F894EE89FF896083E889F989808104
:100440008370806480839FBF81E090E0DF91CF91D3
:100450001F910F910895062F1B8D1F5F8C8D8113A7
:100460000BC00FB607FCFACFE889F989808185FFB8
:10047000F5CFCE01AEDFF2CFEB8DEC0FFD2FF11DEE
:10048000E35EFE4F00839FB7F8941B8FEA89FB89D8
:1004900080818062D7CFCF93DF93EC01888D882352
:1004A000B1F0AA89BB89E889F9898C9185FD03C0DF
:1004B000808186FD0CC00FB607FCF7CF8C9185FFBD
:1004C000F2CF808185FFEDCFCE0183DFEACFDF91D0
:1004D000CF91089580E090E0892B21F071DF8111A8
:1004E0000E94000080E090E0892B21F060DF811104
:1004F0000E94000080E090E0892B49F080E090E0CD
:10050000892B29F00E94000081110E94000080E0E8
:1005100090E0892B49F080E090E0892B29F00E943F
:10052000000081110C94000008958150823108F080
:1005300059C0E82FF0E08827E056FD4F8F4FABC73A
:10054000C002C402B202B802BC02F202C702CD026B
:10055000D102D702DB02DF02E502E902F202ED027C
:10056000F302F702809180008F77809380000895D6
:10057000809180008F7DF9CF80918000877FF5CFBB
:1005800084B58F7784BD089584B58F7DFBCF80912E
:10059000B0008F778093B00008958091B0008F7D78
:1005A000F9CF809190008F7780939000089580918B
:1005B00090008F7DF9CF80919000877FF5CF80915B
:1005C000A0008F778093A00008958091A0008F7D78
:1005D000F9CF8091A000877FF5CF809120018F77A0
:1005E000809320010895809120018F7DF9CF809123
:1005F0002001877FF5CFCF93DF93E6ECF1E0849184
:10060000E0E8F1E0D491EAE3F1E0C491CC2399F081
:1006100081118BDFEC2FF0E0EE0FFF1FE85EFE4F45
:10062000A591B491EC91ED2381E090E009F480E094
:10063000DF91CF91089580E090E0FACF1F93CF93A0
:10064000DF93282F30E0F901E254FE4F8491F90145
:10065000E858FE4FD491F901EE5CFE4FC491CC23D3
:10066000A1F0162F811161DFEC2FF0E0EE0FFF1FDC
:10067000E250FF4FA591B4918FB7F894EC9111110E
:1006800008C0D095DE23DC938FBFDF91CF911F91FF
:100690000895DE2BF8CFCF93DF9390E0FC01E8586C
:1006A000FE4F24918E5C9E4FFC0184918823C9F0FB
:1006B00090E0880F991FFC01EC51FF4FA591B49178
:1006C000FC01E250FF4FC591D49161110DC09FB75D
:1006D000F8948C91209582238C93888128232883F9
:1006E0009FBFDF91CF910895623051F49FB7F89486
:1006F0003C91822F809583238C93E8812E2BEFCF22
:100700008FB7F894EC912E2B2C938FBFEACF3FB785
:10071000F8948091250490912604A0912704B0912B
:10072000280426B5A89B05C02F3F19F00196A11DEE
:10073000B11D3FBFBA2FA92F982F8827BC01CD012B
:10074000620F711D811D911D42E0660F771F881F8A
:10075000991F4A95D1F708958F929F92AF92BF92B9
:10076000CF92DF92EF92FF924B015C01D0DF6B01E1
:100770007C01CDDF6C197D098E099F09683E7340AD
:1007800081059105B0F321E0821A9108A108B10812
:1007900088EEC80E83E0D81EE11CF11C8114910480
:1007A000A104B10431F7FF90EF90DF90CF90BF909C
:1007B000AF909F908F90089560ED77E080E090E09B
:1007C000CBDF85E495E0ECDD1816190644F485E4EA
:1007D00095E0C5DD682F82E697E01ADEF2CF80E073
:1007E0000895DC01EBE2F4E09D91992329F08191D9
:1007F0009817D1F380E0089581E00895FB010190FE
:100800000020E9F73197AF01461B570B6BCD8F9254
:100810009F92AF92BF92CF92DF92EF92FF920F938F
:100820001F93CF93DF93CDB7DEB7A1970FB6F894A0
:10083000DEBF0FBECDBF6C01990FEE08FF08F7FEBB
:1008400047C06DE282E697E0E3DD8C012227332783
:10085000A9012C193D094E095F0919A2CE01819603
:100860007C019AE0892E912CA12CB12CCA01B901EE
:10087000A5019401EED5605DF70162937F0121151A
:1008800031054105510591F790E080E0309721F066
:10089000BF0182E697E0B2DF080F191F6CE872E033
:1008A00082E697E0ABDF800F911FA1960FB6F89418
:1008B000DEBF0FBECDBFDF91CF911F910F91FF9093
:1008C000EF90DF90CF90BF90AF909F908F90089562
:1008D000A701960119A28E010F5D1F4F8AE0C82E55
:1008E000D12CE12CF12CCA01B901A7019601B1D597
:1008F000605DF80162938F012115310541055105B5
:1009000091F7309731F0BF0182E697E077DF8C01F5
:10091000C5CF10E000E0C2CF0F931F93CF93DF93BA
:10092000EC016CDF8C016CE872E0CE0167DF800FB8
:10093000911FDF91CF911F910F9108955FCFCF93BA
:10094000DF93EC016FE872E085E495E0F7DFE5E81E
:10095000F9E0448155816081718185E495E0C2DCD4
:1009600067E972E085E495E0D7DF60ED77E080E04D
:1009700090E0F2DEBE0185E495E0E0DF6AE185E427
:1009800095E046DD68E873E180E090E0E5DE69E946
:1009900072E082E697E0C0DF62EA72E085E495E00B
:1009A000BBDF68E873E180E090E0DF91CF91D4CEC7
:1009B000EF92FF920F931F93CF93DF93CDB7DEB7E4
:1009C000C856D1400FB6F894DEBF0FBECDBF8E0122
:1009D0000F5F1F4F780185E495E0E2DC18161906D9
:1009E00044F485E495E0BBDCF70181937F0110823C
:1009F000F2CF80E0E016F10679F1D801FD01E01BAD
:100A0000F10B8D918232D1F78C918D30B9F73396FD
:100A1000E00FF11FABE2B4E0CD018B529440219185
:100A20002D3011F02D93F8CFFC01E55DFB4F1082C6
:100A300065EB72E082E697E081DFB80182E697E03D
:100A40006BDF64EC72E082E697E078DF6BE274E0E3
:100A500082E697E061DF81E0C859DE4F0FB6F89477
:100A6000DEBF0FBECDBFDF91CF911F910F91FF90E1
:100A7000EF900895EF92FF920F931F93CF93DF9320
:100A8000EC017B018A0188819981009729F02A81F4
:100A90003B812417350780F4B8016F5F7F4F28D65C
:100AA000009789F0998388831B830A832C813D8179
:100AB000232B11F4FC0110821D830C83B701888164
:100AC000998106D70BC088819981009709F087D555
:100AD000198218821D821C821B821A82CE01DF912C
:100AE000CF911F910F91FF90EF9008951F920F9259
:100AF0000FB60F9211240BB60F922F933F934F9383
:100B00005F936F937F938F939F93AF93BF93EF9375
:100B1000FF9385E495E05DDCFF91EF91BF91AF918C
:100B20009F918F917F916F915F914F913F912F9105
:100B30000F900BBE0F900FBE0F901F9018951F9235
:100B40000F920FB60F9211240BB60F922F938F9323
:100B50009F93EF93FF93E0915505F09156058081A7
:100B6000E0915B05F0915C0582FD1CC09081809155
:100B70005E058F5F20915F05821741F0E0915E0571
:100B8000F0E0EB5BFA4F958F80935E05FF91EF915C
:100B90009F918F912F910F900BBE0F900FBE0F90D2
:100BA0001F9018958081F2CF1F920F920FB60F926F
:100BB00011240BB60F922F933F934F935F936F9334
:100BC0007F938F939F93AF93BF93EF93FF9382E6AF
:100BD00097E0FFDBFF91EF91BF91AF919F918F91D4
:100BE0007F916F915F914F913F912F910F900BBE2D
:100BF0000F900FBE0F901F9018951F920F920FB677
:100C00000F9211240BB60F922F938F939F93EF9314
:100C1000FF93E0917207F09173078081E09178076C
:100C2000F091790782FD1CC0908180917B078F5FD6
:100C300020917C07821741F0E0917B07F0E0EE59AC
:100C4000F84F958F80937B07FF91EF919F918F9144
:100C50002F910F900BBE0F900FBE0F901F90189505
:100C60008081F2CF1F920F920FB60F9211242F9313
:100C70003F938F939F93AF93BF9380912104909163
:100C80002204A0912304B09124043091200423E095
:100C9000230F2D3758F50196A11DB11D2093200477
:100CA0008093210490932204A0932304B0932404FE
:100CB0008091250490912604A0912704B0912804E6
:100CC0000196A11DB11D8093250490932604A09345
:100CD0002704B0932804BF91AF919F918F913F91CA
:100CE0002F910F900FBE0F901F90189526E8230F9D
:100CF0000296A11DB11DD2CFE5E4F5E01382128268
:100D000048EE53E060E070E0448355836683778368
:100D10008EE792E0918380832DEC30E03587248745
:100D20002CEC30E03787268728EC30E0318B208BA5
:100D300029EC30E0338B228B2AEC30E0358B248B8E
:100D40002EEC30E0378B268B118E128E138E148E84
:100D5000E2E6F7E013821282448355836683778349
:100D60009183808385EC90E09587848784EC90E084
:100D70009787868780EC90E0918B808B81EC90E068
:100D8000938B828B82EC90E0958B848B86EC90E049
:100D9000978B868B118E128E138E148EE5E8F9E0F8
:100DA00011821082138212821582148249E050E06F
:100DB00061ED72E0CF015EDEEFE7F9E011821082B3
:100DC000138212821582148246E050E06BED72E0CD
:100DD000CF0150CECF93DF93CDB7DEB7C455D10945
:100DE0000FB6F894DEBF0FBECDBF789484B5826095
:100DF00084BD84B5816084BD85B5826085BD85B5BF
:100E0000816085BD80916E00816080936E0010923C
:100E100081008091810082608093810080918100B7
:100E20008160809381008091800081608093800048
:100E30008091B10084608093B1008091B0008160A6
:100E40008093B000809191008260809391008091A6
:100E500091008160809391008091900081608093E7
:100E600090008091A10082608093A1008091A100F8
:100E700081608093A1008091A00081608093A00098
:100E80008091210182608093210180912101816004
:100E900080932101809120018160809320018091C5
:100EA0007A00846080937A0080917A0082608093D7
:100EB0007A0080917A00816080937A0080917A0034
:100EC000806880937A001092C10061E08AE0E3DBE1
:100ED00061E089E0E0DB60E086E3DDDB61E08BE0A0
:100EE000DADB62E088E0D7DB61E086E0D4DB60E05B
:100EF0008AE0A4DB61E089E0A1DB60E08BE09EDBBF
:100F000061E086E09BDB82E697E0AFD985E495E07F
:100F1000ACD962EE72E082E697E0FEDC68E073E056
:100F200082E697E0F9DC64E373E082E697E006DDB1
:100F300082E697E004DA6BDC60E67AEE80E090E02F
:100F40000BDC62E473E085E495E0E6DC35DC8111DE
:100F5000FDCF65E473E085E495E0DEDC2DDC8111F6
:100F6000FDCF61E573E085E495E0D6DC25DC8111F9
:100F7000FDCF6BE573E085E495E0CEDC1DDC8111EF
:100F8000FDCF64E673E085E495E0C6DC15DC8111F5
:100F9000FDCF6DE673E085E495E0BEDC0DDC8111EC
:100FA000FDCF64E773E085E495E0B6DC05DC8111F4
:100FB000FDCF66E873E085E495E0AEDCFDDB8111F2
:100FC000FDCF80E092E0BBDC94E0692E712C23E041
:100FD000222E312CAA24A394B12C45ECC42E43E03C
:100FE000D42E8E010F5A1F4F52E0452E512C809166
:100FF0007202909173028230910509F499C124F430
:10100000019779F167DAF3CF8330910509F409C2CA
:101010000497C1F76AE074E082E697E07DDC61E066
:101020008AE00CDB60E089E009DB60E08BE006DB56
:1010300068EE73E080E090E08FDBBADC882311F388
:101040006DEA73E082E697E067DC8BE292E0C9DB51
:101050008823C1F2B0927302A09272028AE192E0F8
:1010600065C16FE873E082E697E056DC61E089E0F5
:10107000E5DA60E08AE0E2DA1FD9909344058093D4
:10108000430560ED77E080E090E066DB61EA73E0C5
:1010900082E697E053DC8091430590914405B7DBED
:1010A00080914305909144058D3B924024F05092ED
:1010B0007302409272027CDC882309F4A3CF6DEAAC
:1010C00073E082E697E028DC8DE692E08ADB8823F5
:1010D00039F070927302609272028FE592E026C13D
:1010E00088E592E07EDB882309F4BFC06CEB73E0F7
:1010F00085E495E011DC68EE73E080E090E02CDBA5
:10110000F12CE12C85E495E04BD91816190604F56D
:101110008BE3E816F104B1F385E495E020D9E1E032
:10112000F0E0EC0FFD1FEE0DFF1D8083EFEFEE1AD8
:10113000FE0A88248394912C8C0E9D1E8E0C9F1C7D
:10114000F401608182E697E063D9F4011082DACF7E
:10115000BE016F5F7F4F82E697E0DEDB8A8D809372
:1011600038058B8D80933905FEE2F0933A058F891F
:1011700080933B05888D80933C05F0933D0522E3E9
:1011800020933E0580E380933F058C898093400542
:101190008D8980934105109242058D8D80932F0596
:1011A0008E8D80933005EAE3E093310588A180932A
:1011B000320589A180933305E09334058BA1809398
:1011C00035058CA1809336051092370564EF71E0E8
:1011D00080E090E0C1DA70D8F82EE92E80934305C4
:1011E0009093440568EC70E080E090E0B5DAEF920F
:1011F000FF92DF92CF921F930F9371D368EC73E04D
:10120000CE01019665D368E375E0CE01019655D312
:101210006DE872E0CE01019650D36EEC73E0CE0122
:1012200001964BD36FE275E0CE01019646D36DE88F
:1012300072E0CE01019641D365ED73E0CE010196D7
:101240003CD3B801CE01019638D3BE016F5F7F4F0A
:1012500082E697E061DBCE01019671DB0F900F9083
:101260000F900F900F900F90CDCE82E592E0B9DAFB
:101270008823C9F021D8F82EE92E80934305909356
:10128000440568EC70E080E090E066DAEF92FF924F
:10129000DF92CF921F930F9322D365ED73E0CE01BF
:1012A000019616D3CECF8AE492E09BDA882309F424
:1012B000A9CE1A8219821C821B821E821D82609115
:1012C0007F09709180096115710539F0409183099A
:1012D00050918409CE010196CDDB61EE73E085E487
:1012E00095E02CDB4D815E8169817A8185E495E012
:1012F0000E9472016BE385E495E08AD86CE872E0A5
:1013000085E495E07BDA60E177E280E090E024DA42
:1013100089819A8164D14CDB882309F473CE6BE216
:1013200074E082E697E0F8DA8BE294E008DB6ACEBC
:1013300067EE73E082E697E0EFDA0E945C0190933B
:1013400044058093430561EA73E082E697E0F6DAAC
:1013500080914305909144055ADAF12CE12C4BD948
:10136000892B09F03DC0FFEFEF1AFF0A68EC70E02F
:1013700080E090E0F1D961E08BE060D9C70147DA05
:101380002BE0E216F10459F760E08BE057D9309278
:101390007302209272028091290490912A04892B71
:1013A00079F461E08BE04AD981E392E0C8DA809178
:1013B000290490912A04019690932A048093290489
:1013C000F7DA882309F41ECE6DEA73E082E697E02F
:1013D000A3DA8DE692E005DA882309F413CE79CEFC
:1013E00060E08BE02BD960E089E028D961E08AE0F9
:1013F00025D961E08BE022D964E670E080E090E0DE
:10140000ABD960E08AE01AD9F6D861E0892B09F0FF
:1014100060E08BE013D964E670E080E090E09CD956
:10142000BACF6AEF73E082E697E076DA10922A0488
:1014300010922904B0927302A0927202E3CD8091BF
:101440007F0990918009CBD0809185099091860980
:10145000C6C0A1E21A2EAA1BBB1BFD010DC0AA1F0C
:10146000BB1FEE1FFF1FA217B307E407F50720F00D
:10147000A21BB30BE40BF50B661F771F881F991F88
:101480001A9469F760957095809590959B01AC01D1
:10149000BD01CF010895EE0FFF1F881F8BBF07907E
:1014A000F691E02D19940F931F93CF93DF93823021
:1014B000910510F482E090E0E0918D09F0918E09A1
:1014C00030E020E0B0E0A0E0309799F4211531053C
:1014D00009F44AC0281B390B24303105D8F58A811C
:1014E0009B816115710589F1FB0193838283FE0164
:1014F00011C0408151810281138148175907E0F0E2
:101500004817590799F4109761F012960C931297A7
:1015100013961C933296CF01DF91CF911F910F91BB
:10152000089500938D0910938E09F4CF211531058C
:1015300051F04217530738F0A901DB019A01BD01B0
:10154000DF01F801C1CFEF01F9CF90938E098093AD
:101550008D09CDCFFE01E20FF31F819391932250AD
:10156000310939832883D7CF20918B0930918C0999
:10157000232B41F4209176023091770230938C092D
:1015800020938B0920917402309175022115310549
:1015900041F42DB73EB74091780250917902241B57
:1015A000350BE0918B09F0918C09E217F307A0F459
:1015B0002E1B3F0B2817390778F0AC014E5F5F4FA9
:1015C0002417350748F04E0F5F1F50938C09409346
:1015D0008B09819391939FCFF0E0E0E09CCFCF9374
:1015E000DF930097E9F0FC01329713821282A091F9
:1015F0008D09B0918E09ED0130E020E01097A1F443
:1016000020813181820F931F20918B0930918C09A9
:101610002817390709F061C0F0938C09E0938B0912
:10162000DF91CF910895EA01CE17DF07E8F54A81EF
:101630005B819E0141155105B1F7E901FB83EA8306
:1016400049915991C40FD51FEC17FD0761F48081B2
:1016500091810296840F951FE90199838883828185
:1016600093819B838A83F0E0E0E012968D919C91B8
:1016700013970097B9F52D913C911197CD010296E2
:10168000820F931F20918B0930918C0928173907FD
:1016900039F6309751F510928E0910928D09B0935A
:1016A0008C09A0938B09BCCFD383C2834081518125
:1016B000840F951FC817D90761F44E5F5F4F88816B
:1016C0009981480F591F518340838A819B8193835D
:1016D00082832115310509F0B0CFF0938E09E09394
:1016E0008D099ECFFD01DC01C0CF13821282D7CFBE
:1016F0004F925F926F927F928F929F92AF92BF9222
:10170000CF92DF92EF92FF920F931F93CF93DF93CD
:101710008C01009791F4CB01DF91CF911F910F9134
:10172000FF90EF90DF90CF90BF90AF909F908F9001
:101730007F906F905F904F90B6CEFC01E60FF71F41
:101740009C0122503109E217F30708F4AAC0D9011D
:10175000CD91DC911197C617D70718F1C530D10587
:1017600070F0CE0104978617970748F0C61BD70B79
:101770002297C193D1936D937C93CF0130DFC80141
:10178000DF91CF911F910F91FF90EF90DF90CF905D
:10179000BF90AF909F908F907F906F905F904F9091
:1017A00008955B01AC1ABD0A4C018C0E9D1EA091E0
:1017B0008D09B0918E09512C412CF12CE12C109700
:1017C00031F580918B0990918C098815990509F064
:1017D0005CC04616570608F058C08091740290917C
:1017E0007502009741F48DB79EB7409178025091F1
:1017F0007902841B950BE817F90708F052C0F093A3
:101800008C09E0938B09F90171836083B8CF8D91C6
:101810009C91119712966C90129713967C90139747
:10182000A815B90559F56C0142E0C40ED11CCA14C3
:10183000DB0420F1AC014A195B09DA011296159715
:1018400080F06282738251834083D9016D937C93CF
:10185000E114F10471F0D7011396FC93EE93129703
:101860008ECF22968C0F9D1FF90191838083F30107
:10187000EFCFF0938E09E0938D0981CF481659067A
:1018800008F42C017D01D3019ACFCB010CDE7C0141
:10189000009739F0AE01B80107D0C801A0DE87017A
:1018A0006ECF10E000E06BCFFB01DC0102C00190C5
:1018B0000D9241505040D8F70895FB01DC010D9086
:1018C0000020E9F7119701900D920020E1F70895AB
:1018D000FB01DC0101900D920020E1F708950F93C8
:1018E0001F93CF93DF93CDB7DEB72E970FB6F89443
:1018F000DEBF0FBECDBF0E891F8986E08C831A83A1
:1019000009838FEF9FE79E838D83AE01465E5F4F15
:10191000688D798DCE01019611D02F813885020F07
:10192000131FF80110822E960FB6F894DEBF0FBE7B
:10193000CDBFDF91CF911F910F9108952F923F92CC
:101940004F925F926F927F928F929F92AF92BF92CF
:10195000CF92DF92EF92FF920F931F93CF93DF937B
:1019600000D000D000D01F921F92CDB7DEB77C010F
:101970003B018A01FC0117821682838181FFD0C15D
:10198000CE0101965C01F7019381F30193FD8591EE
:1019900093FF81913F01882309F449C1853239F4CD
:1019A00093FD859193FF81913F01853221F4B70129
:1019B00090E0CFD1E8CF912C212C312CFFE1F31511
:1019C00038F08B3211F190F4803209F1833229F131
:1019D00037FC3CC020ED280F2A3050F536FE20C0E1
:1019E0008AE0989E200D1124922E06C08D3291F02F
:1019F000803371F7689430F8F30193FD859193FF7C
:101A000081913F018111DACF21C0689431F8689447
:101A100032F8F2CF689433F8EFCF689434F8ECCF13
:101A2000EAE02E9E200D1124222E689435F8E4CF92
:101A30008E3229F436FCFBC0689436F8DDCF8C3644
:101A400019F4689437F8D8CF8836B1F2982F9F7D73
:101A500095549330D8F0833691F18337B1F18335C3
:101A600009F05EC02801F2E04F0E511CF801C08061
:101A7000D180692D70E036FC02C06FEF7FEFC601A8
:101A800052D14C01689437F882010AC00C5F1F4F95
:101A9000FFE3F98388248394912C6501E89437F857
:101AA00033FE2AC0522C8114910459F5552009F4B3
:101AB0006ACFB70180E290E04CD15A94F7CFF80199
:101AC000808189830E5F1F4FE5CF2801F2E04F0E22
:101AD000511CF801C080D180692D70E036FC02C035
:101AE0006FEF7FEFC6012AD14C018201D7CFB7013A
:101AF00080E290E02ED12A942814190409F0B8F756
:101B0000D1CFF60137FC859137FE81916F01B70186
:101B100090E01FD151105A94F1E08F1A9108C3CF71
:101B2000843619F0893609F073C0F80137FE67C0B2
:101B300060817181828193810C5F1F4FF32DFF764D
:101B40003F2E97FF09C090958095709561957F4FC6
:101B50008F4F9F4F689437F82AE030E0A50129D1D4
:101B6000C82ECA188C2C432C36FE0CC0E89440F8C2
:101B7000C91440F434FE05C032FC03C0F32DFE7ED0
:101B80004F2E892C44FEA6C0FE01EC0DF11D808174
:101B9000803309F098C0242D297E422E842D887030
:101BA000582E43FCA5C040FE9FC09C2C821418F404
:101BB0002C0C922C981844FEA1C0B70180E390E051
:101BC000C8D042FE08C088E790E041FE02C088E528
:101BD00090E0B701BED0C91408F49CC0CA94D12CBF
:101BE0009FEFC91AD90ACA0CDB1CF60182916F015A
:101BF000B70190E0AED0AC14BD04B9F757CF608107
:101C00007181072E000C880B990B0E5F1F4F96CF2A
:101C1000D32CE894D4F82AE030E08537E1F1232D85
:101C2000297FD22E8F36A9F1F0F4883551F1F701D2
:101C3000868197812B960FB6F894DEBF0FBECDBF7D
:101C4000DF91CF911F910F91FF90EF90DF90CF9098
:101C5000BF90AF909F908F907F906F905F904F90CC
:101C60003F902F900895803749F0883701F7D4FED0
:101C700002C06894D2F820E130E00DC06894D4F836
:101C8000F6CF34FE03C0822F8660D82E20E132E0EA
:101C900002C028E030E0F801D7FE0EC060817181FB
:101CA000828193810C5F1F4FA50183D0C82ECA1873
:101CB0003D2CE89437F856CF6081718190E080E048
:101CC0000E5F1F4FF1CF42FC02C0839467CF839415
:101CD000839464CF842D867809F460CFF6CFB70162
:101CE00080E290E036D083948214C8F3512C63CF05
:101CF000522C5818821408F45ECFF8CF842D8678C1
:101D000009F469CF8BE241FE80E247FC8DE2B70126
:101D100090E060CFB70180E390E01BD09A945BCF56
:101D20008FEF9FEF87CFFC0105906150704001104D
:101D3000D8F7809590958E0F9F1F0895FC016150F4
:101D4000704001900110D8F7809590958E0F9F1FDD
:101D500008950F931F93CF93DF93182F092FEB0153
:101D60008B8181FD09C01FEF0FEF812F902FDF9135
:101D7000CF911F910F91089582FF14C02E813F8152
:101D80008C819D81281739073CF4E881F981CF01C6
:101D900001969983888310838E819F8101969F830A
:101DA0008E83E3CFE885F985812F1995892BA1F3DF
:101DB000DACFFA01AA27283051F1203181F1E894D5
:101DC0006F936E7F6E5F7F4F8F4F9F4FAF4FB1E02E
:101DD0003ED0B4E03CD0670F781F891F9A1FA11D29
:101DE000680F791F8A1F911DA11D6A0F711D811D2A
:101DF000911DA11D20D009F468943F912AE0269FEF
:101E000011243019305D3193DEF6CF010895462F4D
:101E10004770405D4193B3E00FD0C9F7F6CF462F2E
:101E20004F70405D4A3318F0495D31FD4052419397
:101E300002D0A9F7EACFB4E0A69597958795779554
:101E40006795BA95C9F700976105710508959B01DB
:101E5000AC010A2E06945795479537952795BA9564
:101E6000C9F7620F731F841F951FA01D089511E00D
:101E7000C3E0D1E000E005C0802FFE010CDB21961D
:101E8000011DC430D10780E00807B1F7F894FFCFF7
:101E900057656C636F6D652E20476173207379738E
:101EA00074656D2061726D65640053797374656D3E
:101EB0002072657374617274656400537461727426
:101EC00000416C61726D202D20676173206C657616
:101ED000656C20657863656564004163636F756E4A
:101EE00074004C6576656C005374617475730053AF
:101EF000797374656D2068616C7465640048616C09
:101F00007400010000008F0980000000000008023A
:101F100072019F014B02D001AF01C2010D0A0041C5
:101F2000542B434D47533D2200534D532073656E50
:101F3000740041542B434D4744413D2244454C20BD
:101F4000414C4C2200434E4D49204D6573736167EF
:101F5000653A200052656164656420534D533A2010
:101F600000353031323137363736002A3132342AB3
:101F7000230057656C636F6D6520746F2047617334
:101F8000205761726E696E672053797374656D2096
:101F90006D6F6E69746F72004E6574776F726B202F
:101FA000636F6E6E656374696E6720616E6420771F
:101FB00061726D696E672073656E736F72207570E4
:101FC0002E2E2E004275666665722073697A653A18
:101FD000200041540041542B4950523D3936303095
:101FE0000041542B434D47463D310041542B435251
:101FF00045473F0041542B434F50533F0041542B22
:102000004353510041542B434E4D493D312C322C0A
:10201000302C302C300041542B43504D533F005353
:10202000746174652031202D2057616974696E6771
:10203000004761732076616C75653A2000534D53FB
:102040002072656164696E672E2E2E0041542B4309
:10205000434C4B3F002564004461793A20005469A9
:102060006D653A2000476173206C6576656C3A2097
:10207000004154442B200053746174652032202D9C
:1020800020416C61726D696E6700537461746520E4
:1020900033202D205265736574005374617465207C
:1020A00034202D2053797374656D2068616C740041
:00000001FF
